{
  "address": "0x14AB61210D915D9E1756270581c77542D35ad3DC",
  "abi": [
    {
      "inputs": [],
      "stateMutability": "nonpayable",
      "type": "constructor"
    },
    {
      "anonymous": false,
      "inputs": [
        {
          "indexed": true,
          "internalType": "address",
          "name": "owner",
          "type": "address"
        },
        {
          "indexed": true,
          "internalType": "address",
          "name": "approved",
          "type": "address"
        },
        {
          "indexed": true,
          "internalType": "uint256",
          "name": "tokenId",
          "type": "uint256"
        }
      ],
      "name": "Approval",
      "type": "event"
    },
    {
      "anonymous": false,
      "inputs": [
        {
          "indexed": true,
          "internalType": "address",
          "name": "owner",
          "type": "address"
        },
        {
          "indexed": true,
          "internalType": "address",
          "name": "operator",
          "type": "address"
        },
        {
          "indexed": false,
          "internalType": "bool",
          "name": "approved",
          "type": "bool"
        }
      ],
      "name": "ApprovalForAll",
      "type": "event"
    },
    {
      "anonymous": false,
      "inputs": [
        {
          "indexed": true,
          "internalType": "address",
          "name": "previousOwner",
          "type": "address"
        },
        {
          "indexed": true,
          "internalType": "address",
          "name": "newOwner",
          "type": "address"
        }
      ],
      "name": "OwnershipTransferred",
      "type": "event"
    },
    {
      "anonymous": false,
      "inputs": [
        {
          "indexed": false,
          "internalType": "address",
          "name": "recipient",
          "type": "address"
        },
        {
          "indexed": false,
          "internalType": "uint256",
          "name": "tokenId",
          "type": "uint256"
        },
        {
          "indexed": false,
          "internalType": "string",
          "name": "tokenURI",
          "type": "string"
        }
      ],
      "name": "SafeMint",
      "type": "event"
    },
    {
      "anonymous": false,
      "inputs": [
        {
          "indexed": true,
          "internalType": "address",
          "name": "from",
          "type": "address"
        },
        {
          "indexed": true,
          "internalType": "address",
          "name": "to",
          "type": "address"
        },
        {
          "indexed": true,
          "internalType": "uint256",
          "name": "tokenId",
          "type": "uint256"
        }
      ],
      "name": "Transfer",
      "type": "event"
    },
    {
      "anonymous": false,
      "inputs": [
        {
          "indexed": false,
          "internalType": "uint256",
          "name": "amount",
          "type": "uint256"
        }
      ],
      "name": "WithdrawBalance",
      "type": "event"
    },
    {
      "inputs": [
        {
          "internalType": "address",
          "name": "to",
          "type": "address"
        },
        {
          "internalType": "uint256",
          "name": "tokenId",
          "type": "uint256"
        }
      ],
      "name": "approve",
      "outputs": [],
      "stateMutability": "nonpayable",
      "type": "function"
    },
    {
      "inputs": [
        {
          "internalType": "address",
          "name": "owner",
          "type": "address"
        }
      ],
      "name": "balanceOf",
      "outputs": [
        {
          "internalType": "uint256",
          "name": "",
          "type": "uint256"
        }
      ],
      "stateMutability": "view",
      "type": "function"
    },
    {
      "inputs": [
        {
          "internalType": "uint256",
          "name": "tokenId",
          "type": "uint256"
        }
      ],
      "name": "getApproved",
      "outputs": [
        {
          "internalType": "address",
          "name": "",
          "type": "address"
        }
      ],
      "stateMutability": "view",
      "type": "function"
    },
    {
      "inputs": [
        {
          "internalType": "address",
          "name": "owner",
          "type": "address"
        },
        {
          "internalType": "address",
          "name": "operator",
          "type": "address"
        }
      ],
      "name": "isApprovedForAll",
      "outputs": [
        {
          "internalType": "bool",
          "name": "",
          "type": "bool"
        }
      ],
      "stateMutability": "view",
      "type": "function"
    },
    {
      "inputs": [],
      "name": "name",
      "outputs": [
        {
          "internalType": "string",
          "name": "",
          "type": "string"
        }
      ],
      "stateMutability": "view",
      "type": "function"
    },
    {
      "inputs": [],
      "name": "owner",
      "outputs": [
        {
          "internalType": "address",
          "name": "",
          "type": "address"
        }
      ],
      "stateMutability": "view",
      "type": "function"
    },
    {
      "inputs": [
        {
          "internalType": "uint256",
          "name": "tokenId",
          "type": "uint256"
        }
      ],
      "name": "ownerOf",
      "outputs": [
        {
          "internalType": "address",
          "name": "",
          "type": "address"
        }
      ],
      "stateMutability": "view",
      "type": "function"
    },
    {
      "inputs": [],
      "name": "renounceOwnership",
      "outputs": [],
      "stateMutability": "nonpayable",
      "type": "function"
    },
    {
      "inputs": [
        {
          "internalType": "address",
          "name": "recipient",
          "type": "address"
        },
        {
          "internalType": "string",
          "name": "tokenURI",
          "type": "string"
        }
      ],
      "name": "safeMint",
      "outputs": [],
      "stateMutability": "payable",
      "type": "function"
    },
    {
      "inputs": [
        {
          "internalType": "address",
          "name": "from",
          "type": "address"
        },
        {
          "internalType": "address",
          "name": "to",
          "type": "address"
        },
        {
          "internalType": "uint256",
          "name": "tokenId",
          "type": "uint256"
        }
      ],
      "name": "safeTransferFrom",
      "outputs": [],
      "stateMutability": "nonpayable",
      "type": "function"
    },
    {
      "inputs": [
        {
          "internalType": "address",
          "name": "from",
          "type": "address"
        },
        {
          "internalType": "address",
          "name": "to",
          "type": "address"
        },
        {
          "internalType": "uint256",
          "name": "tokenId",
          "type": "uint256"
        },
        {
          "internalType": "bytes",
          "name": "data",
          "type": "bytes"
        }
      ],
      "name": "safeTransferFrom",
      "outputs": [],
      "stateMutability": "nonpayable",
      "type": "function"
    },
    {
      "inputs": [
        {
          "internalType": "address",
          "name": "operator",
          "type": "address"
        },
        {
          "internalType": "bool",
          "name": "approved",
          "type": "bool"
        }
      ],
      "name": "setApprovalForAll",
      "outputs": [],
      "stateMutability": "nonpayable",
      "type": "function"
    },
    {
      "inputs": [
        {
          "internalType": "bytes4",
          "name": "interfaceId",
          "type": "bytes4"
        }
      ],
      "name": "supportsInterface",
      "outputs": [
        {
          "internalType": "bool",
          "name": "",
          "type": "bool"
        }
      ],
      "stateMutability": "view",
      "type": "function"
    },
    {
      "inputs": [],
      "name": "symbol",
      "outputs": [
        {
          "internalType": "string",
          "name": "",
          "type": "string"
        }
      ],
      "stateMutability": "view",
      "type": "function"
    },
    {
      "inputs": [
        {
          "internalType": "uint256",
          "name": "tokenId",
          "type": "uint256"
        }
      ],
      "name": "tokenURI",
      "outputs": [
        {
          "internalType": "string",
          "name": "",
          "type": "string"
        }
      ],
      "stateMutability": "view",
      "type": "function"
    },
    {
      "inputs": [
        {
          "internalType": "address",
          "name": "from",
          "type": "address"
        },
        {
          "internalType": "address",
          "name": "to",
          "type": "address"
        },
        {
          "internalType": "uint256",
          "name": "tokenId",
          "type": "uint256"
        }
      ],
      "name": "transferFrom",
      "outputs": [],
      "stateMutability": "nonpayable",
      "type": "function"
    },
    {
      "inputs": [
        {
          "internalType": "address",
          "name": "newOwner",
          "type": "address"
        }
      ],
      "name": "transferOwnership",
      "outputs": [],
      "stateMutability": "nonpayable",
      "type": "function"
    },
    {
      "inputs": [],
      "name": "viewBalance",
      "outputs": [
        {
          "internalType": "uint256",
          "name": "",
          "type": "uint256"
        }
      ],
      "stateMutability": "view",
      "type": "function"
    },
    {
      "inputs": [],
      "name": "withdrawBalance",
      "outputs": [],
      "stateMutability": "nonpayable",
      "type": "function"
    }
  ],
  "transactionHash": "0x9f74cb5316df98382cef08b3de4134c67925fee8f96dbf0c5c66729d4ca6622b",
  "args": [],
  "numDeployments": 1,
  "solcInputHash": "b0b9b5cb7a4cd886dae141c40f99649d",
  "bytecode": "0x6080604052662386f26fc10000600960006101000a81548167ffffffffffffffff021916908367ffffffffffffffff1602179055503480156200004157600080fd5b506040518060400160405280600381526020017f4e667400000000000000000000000000000000000000000000000000000000008152506040518060400160405280600381526020017f4e465400000000000000000000000000000000000000000000000000000000008152508160009081620000bf919062000442565b508060019081620000d1919062000442565b505050620000f4620000e8620000fa60201b60201c565b6200010260201b60201c565b62000529565b600033905090565b6000600760009054906101000a900473ffffffffffffffffffffffffffffffffffffffff16905081600760006101000a81548173ffffffffffffffffffffffffffffffffffffffff021916908373ffffffffffffffffffffffffffffffffffffffff1602179055508173ffffffffffffffffffffffffffffffffffffffff168173ffffffffffffffffffffffffffffffffffffffff167f8be0079c531659141344cd1fd0a4f28419497f9722a3daafe3b4186f6b6457e060405160405180910390a35050565b600081519050919050565b7f4e487b7100000000000000000000000000000000000000000000000000000000600052604160045260246000fd5b7f4e487b7100000000000000000000000000000000000000000000000000000000600052602260045260246000fd5b600060028204905060018216806200024a57607f821691505b60208210810362000260576200025f62000202565b5b50919050565b60008190508160005260206000209050919050565b60006020601f8301049050919050565b600082821b905092915050565b600060088302620002ca7fffffffffffffffffffffffffffffffffffffffffffffffffffffffffffffffff826200028b565b620002d686836200028b565b95508019841693508086168417925050509392505050565b6000819050919050565b6000819050919050565b6000620003236200031d6200031784620002ee565b620002f8565b620002ee565b9050919050565b6000819050919050565b6200033f8362000302565b620003576200034e826200032a565b84845462000298565b825550505050565b600090565b6200036e6200035f565b6200037b81848462000334565b505050565b5b81811015620003a3576200039760008262000364565b60018101905062000381565b5050565b601f821115620003f257620003bc8162000266565b620003c7846200027b565b81016020851015620003d7578190505b620003ef620003e6856200027b565b83018262000380565b50505b505050565b600082821c905092915050565b60006200041760001984600802620003f7565b1980831691505092915050565b600062000432838362000404565b9150826002028217905092915050565b6200044d82620001c8565b67ffffffffffffffff811115620004695762000468620001d3565b5b62000475825462000231565b62000482828285620003a7565b600060209050601f831160018114620004ba5760008415620004a5578287015190505b620004b1858262000424565b86555062000521565b601f198416620004ca8662000266565b60005b82811015620004f457848901518255600182019150602085019450602081019050620004cd565b8683101562000514578489015162000510601f89168262000404565b8355505b6001600288020188555050505b505050505050565b61333380620005396000396000f3fe6080604052600436106101145760003560e01c806370a08231116100a0578063b88d4fde11610064578063b88d4fde1461038b578063c87b56dd146103b4578063d204c45e146103f1578063e985e9c51461040d578063f2fde38b1461044a57610114565b806370a08231146102b8578063715018a6146102f55780638da5cb5b1461030c57806395d89b4114610337578063a22cb4651461036257610114565b806323b872dd116100e757806323b872dd146101e75780633ff1e05b1461021057806342842e0e1461023b5780635fd8c710146102645780636352211e1461027b57610114565b806301ffc9a71461011957806306fdde0314610156578063081812fc14610181578063095ea7b3146101be575b600080fd5b34801561012557600080fd5b50610140600480360381019061013b9190611fe3565b610473565b60405161014d919061202b565b60405180910390f35b34801561016257600080fd5b5061016b610555565b60405161017891906120d6565b60405180910390f35b34801561018d57600080fd5b506101a860048036038101906101a3919061212e565b6105e7565b6040516101b5919061219c565b60405180910390f35b3480156101ca57600080fd5b506101e560048036038101906101e091906121e3565b61062d565b005b3480156101f357600080fd5b5061020e60048036038101906102099190612223565b610744565b005b34801561021c57600080fd5b506102256107a4565b6040516102329190612285565b60405180910390f35b34801561024757600080fd5b50610262600480360381019061025d9190612223565b6107b4565b005b34801561027057600080fd5b506102796107d4565b005b34801561028757600080fd5b506102a2600480360381019061029d919061212e565b610869565b6040516102af919061219c565b60405180910390f35b3480156102c457600080fd5b506102df60048036038101906102da91906122a0565b6108ef565b6040516102ec9190612285565b60405180910390f35b34801561030157600080fd5b5061030a6109a6565b005b34801561031857600080fd5b506103216109ba565b60405161032e919061219c565b60405180910390f35b34801561034357600080fd5b5061034c6109e4565b60405161035991906120d6565b60405180910390f35b34801561036e57600080fd5b50610389600480360381019061038491906122f9565b610a76565b005b34801561039757600080fd5b506103b260048036038101906103ad919061246e565b610a8c565b005b3480156103c057600080fd5b506103db60048036038101906103d6919061212e565b610aee565b6040516103e891906120d6565b60405180910390f35b61040b60048036038101906104069190612592565b610c00565b005b34801561041957600080fd5b50610434600480360381019061042f91906125ee565b610d0f565b604051610441919061202b565b60405180910390f35b34801561045657600080fd5b50610471600480360381019061046c91906122a0565b610da3565b005b60007f80ac58cd000000000000000000000000000000000000000000000000000000007bffffffffffffffffffffffffffffffffffffffffffffffffffffffff1916827bffffffffffffffffffffffffffffffffffffffffffffffffffffffff1916148061053e57507f5b5e139f000000000000000000000000000000000000000000000000000000007bffffffffffffffffffffffffffffffffffffffffffffffffffffffff1916827bffffffffffffffffffffffffffffffffffffffffffffffffffffffff1916145b8061054e575061054d82610e26565b5b9050919050565b6060600080546105649061265d565b80601f01602080910402602001604051908101604052809291908181526020018280546105909061265d565b80156105dd5780601f106105b2576101008083540402835291602001916105dd565b820191906000526020600020905b8154815290600101906020018083116105c057829003601f168201915b5050505050905090565b60006105f282610e90565b6004600083815260200190815260200160002060009054906101000a900473ffffffffffffffffffffffffffffffffffffffff169050919050565b600061063882610869565b90508073ffffffffffffffffffffffffffffffffffffffff168373ffffffffffffffffffffffffffffffffffffffff16036106a8576040517f08c379a000000000000000000000000000000000000000000000000000000000815260040161069f90612700565b60405180910390fd5b8073ffffffffffffffffffffffffffffffffffffffff166106c7610edb565b73ffffffffffffffffffffffffffffffffffffffff1614806106f657506106f5816106f0610edb565b610d0f565b5b610735576040517f08c379a000000000000000000000000000000000000000000000000000000000815260040161072c90612792565b60405180910390fd5b61073f8383610ee3565b505050565b61075561074f610edb565b82610f9c565b610794576040517f08c379a000000000000000000000000000000000000000000000000000000000815260040161078b90612824565b60405180910390fd5b61079f838383611031565b505050565b60006107ae61132a565b47905090565b6107cf83838360405180602001604052806000815250610a8c565b505050565b6107dc61132a565b60004790506107e96109ba565b73ffffffffffffffffffffffffffffffffffffffff166108fc829081150290604051600060405180830381858888f1935050505015801561082e573d6000803e3d6000fd5b507f5f5cb80d5302aa1a394a4eaaf93ab1082109e671bee9d6889f9d6f60decb68cd8160405161085e9190612285565b60405180910390a150565b600080610875836113a8565b9050600073ffffffffffffffffffffffffffffffffffffffff168173ffffffffffffffffffffffffffffffffffffffff16036108e6576040517f08c379a00000000000000000000000000000000000000000000000000000000081526004016108dd90612890565b60405180910390fd5b80915050919050565b60008073ffffffffffffffffffffffffffffffffffffffff168273ffffffffffffffffffffffffffffffffffffffff160361095f576040517f08c379a000000000000000000000000000000000000000000000000000000000815260040161095690612922565b60405180910390fd5b600360008373ffffffffffffffffffffffffffffffffffffffff1673ffffffffffffffffffffffffffffffffffffffff168152602001908152602001600020549050919050565b6109ae61132a565b6109b860006113e5565b565b6000600760009054906101000a900473ffffffffffffffffffffffffffffffffffffffff16905090565b6060600180546109f39061265d565b80601f0160208091040260200160405190810160405280929190818152602001828054610a1f9061265d565b8015610a6c5780601f10610a4157610100808354040283529160200191610a6c565b820191906000526020600020905b815481529060010190602001808311610a4f57829003601f168201915b5050505050905090565b610a88610a81610edb565b83836114ab565b5050565b610a9d610a97610edb565b83610f9c565b610adc576040517f08c379a0000000000000000000000000000000000000000000000000000000008152600401610ad390612824565b60405180910390fd5b610ae884848484611617565b50505050565b6060610af982610e90565b6000600660008481526020019081526020016000208054610b199061265d565b80601f0160208091040260200160405190810160405280929190818152602001828054610b459061265d565b8015610b925780601f10610b6757610100808354040283529160200191610b92565b820191906000526020600020905b815481529060010190602001808311610b7557829003601f168201915b505050505090506000610ba3611673565b90506000815103610bb8578192505050610bfb565b600082511115610bed578082604051602001610bd592919061297e565b60405160208183030381529060405292505050610bfb565b610bf6846116b0565b925050505b919050565b662386f26fc10000341015610c4a576040517f08c379a0000000000000000000000000000000000000000000000000000000008152600401610c41906129ee565b60405180910390fd5b3373ffffffffffffffffffffffffffffffffffffffff166108fc662386f26fc1000034610c779190612a3d565b9081150290604051600060405180830381858888f19350505050158015610ca2573d6000803e3d6000fd5b506000610caf6008611718565b9050610cbb6008611726565b610cc5838261173c565b610ccf818361175a565b7f86a6f7452cc98a35c0735bf9451ca6765b063d11b68cc52d151c21df3fe2d815838284604051610d0293929190612a71565b60405180910390a1505050565b6000600560008473ffffffffffffffffffffffffffffffffffffffff1673ffffffffffffffffffffffffffffffffffffffff16815260200190815260200160002060008373ffffffffffffffffffffffffffffffffffffffff1673ffffffffffffffffffffffffffffffffffffffff16815260200190815260200160002060009054906101000a900460ff16905092915050565b610dab61132a565b600073ffffffffffffffffffffffffffffffffffffffff168173ffffffffffffffffffffffffffffffffffffffff1603610e1a576040517f08c379a0000000000000000000000000000000000000000000000000000000008152600401610e1190612b21565b60405180910390fd5b610e23816113e5565b50565b60007f01ffc9a7000000000000000000000000000000000000000000000000000000007bffffffffffffffffffffffffffffffffffffffffffffffffffffffff1916827bffffffffffffffffffffffffffffffffffffffffffffffffffffffff1916149050919050565b610e99816117c7565b610ed8576040517f08c379a0000000000000000000000000000000000000000000000000000000008152600401610ecf90612890565b60405180910390fd5b50565b600033905090565b816004600083815260200190815260200160002060006101000a81548173ffffffffffffffffffffffffffffffffffffffff021916908373ffffffffffffffffffffffffffffffffffffffff160217905550808273ffffffffffffffffffffffffffffffffffffffff16610f5683610869565b73ffffffffffffffffffffffffffffffffffffffff167f8c5be1e5ebec7d5bd14f71427d1e84f3dd0314c0f7b2291e5b200ac8c7c3b92560405160405180910390a45050565b600080610fa883610869565b90508073ffffffffffffffffffffffffffffffffffffffff168473ffffffffffffffffffffffffffffffffffffffff161480610fea5750610fe98185610d0f565b5b8061102857508373ffffffffffffffffffffffffffffffffffffffff16611010846105e7565b73ffffffffffffffffffffffffffffffffffffffff16145b91505092915050565b8273ffffffffffffffffffffffffffffffffffffffff1661105182610869565b73ffffffffffffffffffffffffffffffffffffffff16146110a7576040517f08c379a000000000000000000000000000000000000000000000000000000000815260040161109e90612bb3565b60405180910390fd5b600073ffffffffffffffffffffffffffffffffffffffff168273ffffffffffffffffffffffffffffffffffffffff1603611116576040517f08c379a000000000000000000000000000000000000000000000000000000000815260040161110d90612c45565b60405180910390fd5b6111238383836001611808565b8273ffffffffffffffffffffffffffffffffffffffff1661114382610869565b73ffffffffffffffffffffffffffffffffffffffff1614611199576040517f08c379a000000000000000000000000000000000000000000000000000000000815260040161119090612bb3565b60405180910390fd5b6004600082815260200190815260200160002060006101000a81549073ffffffffffffffffffffffffffffffffffffffff02191690556001600360008573ffffffffffffffffffffffffffffffffffffffff1673ffffffffffffffffffffffffffffffffffffffff168152602001908152602001600020600082825403925050819055506001600360008473ffffffffffffffffffffffffffffffffffffffff1673ffffffffffffffffffffffffffffffffffffffff16815260200190815260200160002060008282540192505081905550816002600083815260200190815260200160002060006101000a81548173ffffffffffffffffffffffffffffffffffffffff021916908373ffffffffffffffffffffffffffffffffffffffff160217905550808273ffffffffffffffffffffffffffffffffffffffff168473ffffffffffffffffffffffffffffffffffffffff167fddf252ad1be2c89b69c2b068fc378daa952ba7f163c4a11628f55a4df523b3ef60405160405180910390a4611325838383600161192e565b505050565b611332610edb565b73ffffffffffffffffffffffffffffffffffffffff166113506109ba565b73ffffffffffffffffffffffffffffffffffffffff16146113a6576040517f08c379a000000000000000000000000000000000000000000000000000000000815260040161139d90612cb1565b60405180910390fd5b565b60006002600083815260200190815260200160002060009054906101000a900473ffffffffffffffffffffffffffffffffffffffff169050919050565b6000600760009054906101000a900473ffffffffffffffffffffffffffffffffffffffff16905081600760006101000a81548173ffffffffffffffffffffffffffffffffffffffff021916908373ffffffffffffffffffffffffffffffffffffffff1602179055508173ffffffffffffffffffffffffffffffffffffffff168173ffffffffffffffffffffffffffffffffffffffff167f8be0079c531659141344cd1fd0a4f28419497f9722a3daafe3b4186f6b6457e060405160405180910390a35050565b8173ffffffffffffffffffffffffffffffffffffffff168373ffffffffffffffffffffffffffffffffffffffff1603611519576040517f08c379a000000000000000000000000000000000000000000000000000000000815260040161151090612d1d565b60405180910390fd5b80600560008573ffffffffffffffffffffffffffffffffffffffff1673ffffffffffffffffffffffffffffffffffffffff16815260200190815260200160002060008473ffffffffffffffffffffffffffffffffffffffff1673ffffffffffffffffffffffffffffffffffffffff16815260200190815260200160002060006101000a81548160ff0219169083151502179055508173ffffffffffffffffffffffffffffffffffffffff168373ffffffffffffffffffffffffffffffffffffffff167f17307eab39ab6107e8899845ad3d59bd9653f200f220920489ca2b5937696c318360405161160a919061202b565b60405180910390a3505050565b611622848484611031565b61162e84848484611934565b61166d576040517f08c379a000000000000000000000000000000000000000000000000000000000815260040161166490612daf565b60405180910390fd5b50505050565b60606040518060400160405280600781526020017f697066733a2f2f00000000000000000000000000000000000000000000000000815250905090565b60606116bb82610e90565b60006116c5611673565b905060008151116116e55760405180602001604052806000815250611710565b806116ef84611abb565b60405160200161170092919061297e565b6040516020818303038152906040525b915050919050565b600081600001549050919050565b6001816000016000828254019250508190555050565b611756828260405180602001604052806000815250611b89565b5050565b611763826117c7565b6117a2576040517f08c379a000000000000000000000000000000000000000000000000000000000815260040161179990612e41565b60405180910390fd5b806006600084815260200190815260200160002090816117c2919061300d565b505050565b60008073ffffffffffffffffffffffffffffffffffffffff166117e9836113a8565b73ffffffffffffffffffffffffffffffffffffffff1614159050919050565b600181111561192857600073ffffffffffffffffffffffffffffffffffffffff168473ffffffffffffffffffffffffffffffffffffffff161461189c5780600360008673ffffffffffffffffffffffffffffffffffffffff1673ffffffffffffffffffffffffffffffffffffffff16815260200190815260200160002060008282546118949190612a3d565b925050819055505b600073ffffffffffffffffffffffffffffffffffffffff168373ffffffffffffffffffffffffffffffffffffffff16146119275780600360008573ffffffffffffffffffffffffffffffffffffffff1673ffffffffffffffffffffffffffffffffffffffff168152602001908152602001600020600082825461191f91906130df565b925050819055505b5b50505050565b50505050565b60006119558473ffffffffffffffffffffffffffffffffffffffff16611be4565b15611aae578373ffffffffffffffffffffffffffffffffffffffff1663150b7a0261197e610edb565b8786866040518563ffffffff1660e01b81526004016119a09493929190613168565b6020604051808303816000875af19250505080156119dc57506040513d601f19601f820116820180604052508101906119d991906131c9565b60015b611a5e573d8060008114611a0c576040519150601f19603f3d011682016040523d82523d6000602084013e611a11565b606091505b506000815103611a56576040517f08c379a0000000000000000000000000000000000000000000000000000000008152600401611a4d90612daf565b60405180910390fd5b805181602001fd5b63150b7a0260e01b7bffffffffffffffffffffffffffffffffffffffffffffffffffffffff1916817bffffffffffffffffffffffffffffffffffffffffffffffffffffffff191614915050611ab3565b600190505b949350505050565b606060006001611aca84611c07565b01905060008167ffffffffffffffff811115611ae957611ae8612343565b5b6040519080825280601f01601f191660200182016040528015611b1b5781602001600182028036833780820191505090505b509050600082602001820190505b600115611b7e578080600190039150507f3031323334353637383961626364656600000000000000000000000000000000600a86061a8153600a8581611b7257611b716131f6565b5b04945060008503611b29575b819350505050919050565b611b938383611d5a565b611ba06000848484611934565b611bdf576040517f08c379a0000000000000000000000000000000000000000000000000000000008152600401611bd690612daf565b60405180910390fd5b505050565b6000808273ffffffffffffffffffffffffffffffffffffffff163b119050919050565b600080600090507a184f03e93ff9f4daa797ed6e38ed64bf6a1f0100000000000000008310611c65577a184f03e93ff9f4daa797ed6e38ed64bf6a1f0100000000000000008381611c5b57611c5a6131f6565b5b0492506040810190505b6d04ee2d6d415b85acef81000000008310611ca2576d04ee2d6d415b85acef81000000008381611c9857611c976131f6565b5b0492506020810190505b662386f26fc100008310611cd157662386f26fc100008381611cc757611cc66131f6565b5b0492506010810190505b6305f5e1008310611cfa576305f5e1008381611cf057611cef6131f6565b5b0492506008810190505b6127108310611d1f576127108381611d1557611d146131f6565b5b0492506004810190505b60648310611d425760648381611d3857611d376131f6565b5b0492506002810190505b600a8310611d51576001810190505b80915050919050565b600073ffffffffffffffffffffffffffffffffffffffff168273ffffffffffffffffffffffffffffffffffffffff1603611dc9576040517f08c379a0000000000000000000000000000000000000000000000000000000008152600401611dc090613271565b60405180910390fd5b611dd2816117c7565b15611e12576040517f08c379a0000000000000000000000000000000000000000000000000000000008152600401611e09906132dd565b60405180910390fd5b611e20600083836001611808565b611e29816117c7565b15611e69576040517f08c379a0000000000000000000000000000000000000000000000000000000008152600401611e60906132dd565b60405180910390fd5b6001600360008473ffffffffffffffffffffffffffffffffffffffff1673ffffffffffffffffffffffffffffffffffffffff16815260200190815260200160002060008282540192505081905550816002600083815260200190815260200160002060006101000a81548173ffffffffffffffffffffffffffffffffffffffff021916908373ffffffffffffffffffffffffffffffffffffffff160217905550808273ffffffffffffffffffffffffffffffffffffffff16600073ffffffffffffffffffffffffffffffffffffffff167fddf252ad1be2c89b69c2b068fc378daa952ba7f163c4a11628f55a4df523b3ef60405160405180910390a4611f7360008383600161192e565b5050565b6000604051905090565b600080fd5b600080fd5b60007fffffffff0000000000000000000000000000000000000000000000000000000082169050919050565b611fc081611f8b565b8114611fcb57600080fd5b50565b600081359050611fdd81611fb7565b92915050565b600060208284031215611ff957611ff8611f81565b5b600061200784828501611fce565b91505092915050565b60008115159050919050565b61202581612010565b82525050565b6000602082019050612040600083018461201c565b92915050565b600081519050919050565b600082825260208201905092915050565b60005b83811015612080578082015181840152602081019050612065565b60008484015250505050565b6000601f19601f8301169050919050565b60006120a882612046565b6120b28185612051565b93506120c2818560208601612062565b6120cb8161208c565b840191505092915050565b600060208201905081810360008301526120f0818461209d565b905092915050565b6000819050919050565b61210b816120f8565b811461211657600080fd5b50565b60008135905061212881612102565b92915050565b60006020828403121561214457612143611f81565b5b600061215284828501612119565b91505092915050565b600073ffffffffffffffffffffffffffffffffffffffff82169050919050565b60006121868261215b565b9050919050565b6121968161217b565b82525050565b60006020820190506121b1600083018461218d565b92915050565b6121c08161217b565b81146121cb57600080fd5b50565b6000813590506121dd816121b7565b92915050565b600080604083850312156121fa576121f9611f81565b5b6000612208858286016121ce565b925050602061221985828601612119565b9150509250929050565b60008060006060848603121561223c5761223b611f81565b5b600061224a868287016121ce565b935050602061225b868287016121ce565b925050604061226c86828701612119565b9150509250925092565b61227f816120f8565b82525050565b600060208201905061229a6000830184612276565b92915050565b6000602082840312156122b6576122b5611f81565b5b60006122c4848285016121ce565b91505092915050565b6122d681612010565b81146122e157600080fd5b50565b6000813590506122f3816122cd565b92915050565b600080604083850312156123105761230f611f81565b5b600061231e858286016121ce565b925050602061232f858286016122e4565b9150509250929050565b600080fd5b600080fd5b7f4e487b7100000000000000000000000000000000000000000000000000000000600052604160045260246000fd5b61237b8261208c565b810181811067ffffffffffffffff8211171561239a57612399612343565b5b80604052505050565b60006123ad611f77565b90506123b98282612372565b919050565b600067ffffffffffffffff8211156123d9576123d8612343565b5b6123e28261208c565b9050602081019050919050565b82818337600083830152505050565b600061241161240c846123be565b6123a3565b90508281526020810184848401111561242d5761242c61233e565b5b6124388482856123ef565b509392505050565b600082601f83011261245557612454612339565b5b81356124658482602086016123fe565b91505092915050565b6000806000806080858703121561248857612487611f81565b5b6000612496878288016121ce565b94505060206124a7878288016121ce565b93505060406124b887828801612119565b925050606085013567ffffffffffffffff8111156124d9576124d8611f86565b5b6124e587828801612440565b91505092959194509250565b600067ffffffffffffffff82111561250c5761250b612343565b5b6125158261208c565b9050602081019050919050565b6000612535612530846124f1565b6123a3565b9050828152602081018484840111156125515761255061233e565b5b61255c8482856123ef565b509392505050565b600082601f83011261257957612578612339565b5b8135612589848260208601612522565b91505092915050565b600080604083850312156125a9576125a8611f81565b5b60006125b7858286016121ce565b925050602083013567ffffffffffffffff8111156125d8576125d7611f86565b5b6125e485828601612564565b9150509250929050565b6000806040838503121561260557612604611f81565b5b6000612613858286016121ce565b9250506020612624858286016121ce565b9150509250929050565b7f4e487b7100000000000000000000000000000000000000000000000000000000600052602260045260246000fd5b6000600282049050600182168061267557607f821691505b6020821081036126885761268761262e565b5b50919050565b7f4552433732313a20617070726f76616c20746f2063757272656e74206f776e6560008201527f7200000000000000000000000000000000000000000000000000000000000000602082015250565b60006126ea602183612051565b91506126f58261268e565b604082019050919050565b60006020820190508181036000830152612719816126dd565b9050919050565b7f4552433732313a20617070726f76652063616c6c6572206973206e6f7420746f60008201527f6b656e206f776e6572206f7220617070726f76656420666f7220616c6c000000602082015250565b600061277c603d83612051565b915061278782612720565b604082019050919050565b600060208201905081810360008301526127ab8161276f565b9050919050565b7f4552433732313a2063616c6c6572206973206e6f7420746f6b656e206f776e6560008201527f72206f7220617070726f76656400000000000000000000000000000000000000602082015250565b600061280e602d83612051565b9150612819826127b2565b604082019050919050565b6000602082019050818103600083015261283d81612801565b9050919050565b7f4552433732313a20696e76616c696420746f6b656e2049440000000000000000600082015250565b600061287a601883612051565b915061288582612844565b602082019050919050565b600060208201905081810360008301526128a98161286d565b9050919050565b7f4552433732313a2061646472657373207a65726f206973206e6f74206120766160008201527f6c6964206f776e65720000000000000000000000000000000000000000000000602082015250565b600061290c602983612051565b9150612917826128b0565b604082019050919050565b6000602082019050818103600083015261293b816128ff565b9050919050565b600081905092915050565b600061295882612046565b6129628185612942565b9350612972818560208601612062565b80840191505092915050565b600061298a828561294d565b9150612996828461294d565b91508190509392505050565b7f4e65656420746f20706179207570210000000000000000000000000000000000600082015250565b60006129d8600f83612051565b91506129e3826129a2565b602082019050919050565b60006020820190508181036000830152612a07816129cb565b9050919050565b7f4e487b7100000000000000000000000000000000000000000000000000000000600052601160045260246000fd5b6000612a48826120f8565b9150612a53836120f8565b9250828203905081811115612a6b57612a6a612a0e565b5b92915050565b6000606082019050612a86600083018661218d565b612a936020830185612276565b8181036040830152612aa5818461209d565b9050949350505050565b7f4f776e61626c653a206e6577206f776e657220697320746865207a65726f206160008201527f6464726573730000000000000000000000000000000000000000000000000000602082015250565b6000612b0b602683612051565b9150612b1682612aaf565b604082019050919050565b60006020820190508181036000830152612b3a81612afe565b9050919050565b7f4552433732313a207472616e736665722066726f6d20696e636f72726563742060008201527f6f776e6572000000000000000000000000000000000000000000000000000000602082015250565b6000612b9d602583612051565b9150612ba882612b41565b604082019050919050565b60006020820190508181036000830152612bcc81612b90565b9050919050565b7f4552433732313a207472616e7366657220746f20746865207a65726f2061646460008201527f7265737300000000000000000000000000000000000000000000000000000000602082015250565b6000612c2f602483612051565b9150612c3a82612bd3565b604082019050919050565b60006020820190508181036000830152612c5e81612c22565b9050919050565b7f4f776e61626c653a2063616c6c6572206973206e6f7420746865206f776e6572600082015250565b6000612c9b602083612051565b9150612ca682612c65565b602082019050919050565b60006020820190508181036000830152612cca81612c8e565b9050919050565b7f4552433732313a20617070726f766520746f2063616c6c657200000000000000600082015250565b6000612d07601983612051565b9150612d1282612cd1565b602082019050919050565b60006020820190508181036000830152612d3681612cfa565b9050919050565b7f4552433732313a207472616e7366657220746f206e6f6e20455243373231526560008201527f63656976657220696d706c656d656e7465720000000000000000000000000000602082015250565b6000612d99603283612051565b9150612da482612d3d565b604082019050919050565b60006020820190508181036000830152612dc881612d8c565b9050919050565b7f45524337323155524953746f726167653a2055524920736574206f66206e6f6e60008201527f6578697374656e7420746f6b656e000000000000000000000000000000000000602082015250565b6000612e2b602e83612051565b9150612e3682612dcf565b604082019050919050565b60006020820190508181036000830152612e5a81612e1e565b9050919050565b60008190508160005260206000209050919050565b60006020601f8301049050919050565b600082821b905092915050565b600060088302612ec37fffffffffffffffffffffffffffffffffffffffffffffffffffffffffffffffff82612e86565b612ecd8683612e86565b95508019841693508086168417925050509392505050565b6000819050919050565b6000612f0a612f05612f00846120f8565b612ee5565b6120f8565b9050919050565b6000819050919050565b612f2483612eef565b612f38612f3082612f11565b848454612e93565b825550505050565b600090565b612f4d612f40565b612f58818484612f1b565b505050565b5b81811015612f7c57612f71600082612f45565b600181019050612f5e565b5050565b601f821115612fc157612f9281612e61565b612f9b84612e76565b81016020851015612faa578190505b612fbe612fb685612e76565b830182612f5d565b50505b505050565b600082821c905092915050565b6000612fe460001984600802612fc6565b1980831691505092915050565b6000612ffd8383612fd3565b9150826002028217905092915050565b61301682612046565b67ffffffffffffffff81111561302f5761302e612343565b5b613039825461265d565b613044828285612f80565b600060209050601f8311600181146130775760008415613065578287015190505b61306f8582612ff1565b8655506130d7565b601f19841661308586612e61565b60005b828110156130ad57848901518255600182019150602085019450602081019050613088565b868310156130ca57848901516130c6601f891682612fd3565b8355505b6001600288020188555050505b505050505050565b60006130ea826120f8565b91506130f5836120f8565b925082820190508082111561310d5761310c612a0e565b5b92915050565b600081519050919050565b600082825260208201905092915050565b600061313a82613113565b613144818561311e565b9350613154818560208601612062565b61315d8161208c565b840191505092915050565b600060808201905061317d600083018761218d565b61318a602083018661218d565b6131976040830185612276565b81810360608301526131a9818461312f565b905095945050505050565b6000815190506131c381611fb7565b92915050565b6000602082840312156131df576131de611f81565b5b60006131ed848285016131b4565b91505092915050565b7f4e487b7100000000000000000000000000000000000000000000000000000000600052601260045260246000fd5b7f4552433732313a206d696e7420746f20746865207a65726f2061646472657373600082015250565b600061325b602083612051565b915061326682613225565b602082019050919050565b6000602082019050818103600083015261328a8161324e565b9050919050565b7f4552433732313a20746f6b656e20616c7265616479206d696e74656400000000600082015250565b60006132c7601c83612051565b91506132d282613291565b602082019050919050565b600060208201905081810360008301526132f6816132ba565b905091905056fea2646970667358221220aa676991556e83532883dabfd2a3c16d8862fc1a3bfeee3ae308577e1f7c4abc64736f6c63430008110033",
  "devdoc": {
    "kind": "dev",
    "methods": {
      "approve(address,uint256)": {
        "details": "See {IERC721-approve}."
      },
      "balanceOf(address)": {
        "details": "See {IERC721-balanceOf}."
      },
      "getApproved(uint256)": {
        "details": "See {IERC721-getApproved}."
      },
      "isApprovedForAll(address,address)": {
        "details": "See {IERC721-isApprovedForAll}."
      },
      "name()": {
        "details": "See {IERC721Metadata-name}."
      },
      "owner()": {
        "details": "Returns the address of the current owner."
      },
      "ownerOf(uint256)": {
        "details": "See {IERC721-ownerOf}."
      },
      "renounceOwnership()": {
        "details": "Leaves the contract without owner. It will not be possible to call `onlyOwner` functions anymore. Can only be called by the current owner. NOTE: Renouncing ownership will leave the contract without an owner, thereby removing any functionality that is only available to the owner."
      },
      "safeTransferFrom(address,address,uint256)": {
        "details": "See {IERC721-safeTransferFrom}."
      },
      "safeTransferFrom(address,address,uint256,bytes)": {
        "details": "See {IERC721-safeTransferFrom}."
      },
      "setApprovalForAll(address,bool)": {
        "details": "See {IERC721-setApprovalForAll}."
      },
      "supportsInterface(bytes4)": {
        "details": "See {IERC165-supportsInterface}."
      },
      "symbol()": {
        "details": "See {IERC721Metadata-symbol}."
      },
      "tokenURI(uint256)": {
        "details": "See {IERC721Metadata-tokenURI}."
      },
      "transferFrom(address,address,uint256)": {
        "details": "See {IERC721-transferFrom}."
      },
      "transferOwnership(address)": {
        "details": "Transfers ownership of the contract to a new account (`newOwner`). Can only be called by the current owner."
      }
    },
    "version": 1
  },
  "userdoc": {
    "kind": "user",
    "methods": {},
    "version": 1
  },
  "storageLayout": {
    "storage": [
      {
        "astId": 138,
        "contract": "contracts/Nft.sol:Nft",
        "label": "_name",
        "offset": 0,
        "slot": "0",
        "type": "t_string_storage"
      },
      {
        "astId": 140,
        "contract": "contracts/Nft.sol:Nft",
        "label": "_symbol",
        "offset": 0,
        "slot": "1",
        "type": "t_string_storage"
      },
      {
        "astId": 144,
        "contract": "contracts/Nft.sol:Nft",
        "label": "_owners",
        "offset": 0,
        "slot": "2",
        "type": "t_mapping(t_uint256,t_address)"
      },
      {
        "astId": 148,
        "contract": "contracts/Nft.sol:Nft",
        "label": "_balances",
        "offset": 0,
        "slot": "3",
        "type": "t_mapping(t_address,t_uint256)"
      },
      {
        "astId": 152,
        "contract": "contracts/Nft.sol:Nft",
        "label": "_tokenApprovals",
        "offset": 0,
        "slot": "4",
        "type": "t_mapping(t_uint256,t_address)"
      },
      {
        "astId": 158,
        "contract": "contracts/Nft.sol:Nft",
        "label": "_operatorApprovals",
        "offset": 0,
        "slot": "5",
        "type": "t_mapping(t_address,t_mapping(t_address,t_bool))"
      },
      {
        "astId": 1204,
        "contract": "contracts/Nft.sol:Nft",
        "label": "_tokenURIs",
        "offset": 0,
        "slot": "6",
        "type": "t_mapping(t_uint256,t_string_storage)"
      },
      {
        "astId": 7,
        "contract": "contracts/Nft.sol:Nft",
        "label": "_owner",
        "offset": 0,
        "slot": "7",
        "type": "t_address"
      },
      {
        "astId": 2861,
        "contract": "contracts/Nft.sol:Nft",
        "label": "_tokenIdCounter",
        "offset": 0,
        "slot": "8",
        "type": "t_struct(Counter)1701_storage"
      },
      {
        "astId": 2864,
        "contract": "contracts/Nft.sol:Nft",
        "label": "_mintingFee",
        "offset": 0,
        "slot": "9",
        "type": "t_uint64"
      }
    ],
    "types": {
      "t_address": {
        "encoding": "inplace",
        "label": "address",
        "numberOfBytes": "20"
      },
      "t_bool": {
        "encoding": "inplace",
        "label": "bool",
        "numberOfBytes": "1"
      },
      "t_mapping(t_address,t_bool)": {
        "encoding": "mapping",
        "key": "t_address",
        "label": "mapping(address => bool)",
        "numberOfBytes": "32",
        "value": "t_bool"
      },
      "t_mapping(t_address,t_mapping(t_address,t_bool))": {
        "encoding": "mapping",
        "key": "t_address",
        "label": "mapping(address => mapping(address => bool))",
        "numberOfBytes": "32",
        "value": "t_mapping(t_address,t_bool)"
      },
      "t_mapping(t_address,t_uint256)": {
        "encoding": "mapping",
        "key": "t_address",
        "label": "mapping(address => uint256)",
        "numberOfBytes": "32",
        "value": "t_uint256"
      },
      "t_mapping(t_uint256,t_address)": {
        "encoding": "mapping",
        "key": "t_uint256",
        "label": "mapping(uint256 => address)",
        "numberOfBytes": "32",
        "value": "t_address"
      },
      "t_mapping(t_uint256,t_string_storage)": {
        "encoding": "mapping",
        "key": "t_uint256",
        "label": "mapping(uint256 => string)",
        "numberOfBytes": "32",
        "value": "t_string_storage"
      },
      "t_string_storage": {
        "encoding": "bytes",
        "label": "string",
        "numberOfBytes": "32"
      },
      "t_struct(Counter)1701_storage": {
        "encoding": "inplace",
        "label": "struct Counters.Counter",
        "members": [
          {
            "astId": 1700,
            "contract": "contracts/Nft.sol:Nft",
            "label": "_value",
            "offset": 0,
            "slot": "0",
            "type": "t_uint256"
          }
        ],
        "numberOfBytes": "32"
      },
      "t_uint256": {
        "encoding": "inplace",
        "label": "uint256",
        "numberOfBytes": "32"
      },
      "t_uint64": {
        "encoding": "inplace",
        "label": "uint64",
        "numberOfBytes": "8"
      }
    }
  }
}